:020000040800F2
:1000000000060120010200080302000803020008A4
:1000100003020008030200080302000803020008AC
:10002000030200080302000803020008D137000899
:10003000030200080302000803020008030200088C
:10004000030200080302000803020008030200087C
:100050000302000803020008793A0008A13A0008E8
:10006000C93A0008F13A0008193B000803020008E9
:10007000030200080302000803020008030200084C
:10008000030200080302000803020008030200083C
:10009000030200080302000803020008413B0008B5
:1000A000030200080302000803020008030200081C
:1000B000293C0008030200080302000803020008AC
:1000C00003020008030200080302000803020008FC
:1000D00003020008153C00080302000803020008A0
:1000E000A53B000803020008030200080302000801
:1000F00003020008030200080302000803020008CC
:1001000003020008030200080302000803020008BB
:1001100003020008030200080302000803020008AB
:10012000030200080302000803020008030200089B
:10013000030200080302000803020008030200088B
:10014000030200080302000803020008452F00080C
:10015000030200080302000803020008030200086B
:10016000030200080302000803020008030200085B
:10017000030200080302000803020008030200084B
:10018000030200080302000803020008030200083B
:10019000030200080302000803020008030200082B
:1001A000030200080302000803020008030200081B
:1001B000030200080302000803020008030200080B
:1001C00003020008030200080302000803020008FB
:1001D00003020008030200080302000803020008EB
:1001E00003020008030200080302000803020008DB
:1001F00003020008030200080302000803020008CB
:1002000002E000F000F8FEE772B6374880F3088895
:10021000364880F3098836483649086040F20000C5
:10022000CCF200004EF63471CEF200010860BFF34C
:100230004F8FBFF36F8F40F20000C0F2F0004EF618
:100240008851CEF200010860BFF34F8FBFF36F8F6C
:100250004FF00000E1EE100A4EF63C71CEF20001C4
:100260000860062080F31488BFF36F8F02F0C4FA91
:1002700003F040FA4FF055301F491B4A91423CBFF2
:1002800041F8040BFAE71D49184A91423CBF41F876
:10029000040BFAE71A491B4A1B4B9A423EBF51F81E
:1002A000040B42F8040BF8E700201849184A914261
:1002B0003CBF41F8040BFAE702F0DCFA03F07AFAEB
:1002C000144C154DAC4203DA54F8041B8847F9E787
:1002D00000F042F8114C124DAC4203DA54F8041B02
:1002E0008847F9E702F0C4BA000601200022012085
:1002F0000000000808ED00E00000012000060120D9
:1003000030400008002201206422012068220120E0
:100310001831012000020008000200080002000855
:10032000000200082DE9F04F2DED108AC1F80CD025
:10033000D0F80CD0BDEC108ABDE8F08F002383F319
:1003400011882846A047002001F000FEFEE701F0DA
:1003500089FD00DFFEE7000038B500F027FC02F061
:100360000BFA054602F03EFA0446C8B90E4B9D4210
:1003700018D001339D4218BF044641F2883504BFAE
:1003800001240025002002F001FA0CB100F076F8FB
:1003900000F074FD284600F0FDF800F06FF8F9E772
:1003A0000025EFE70546EDE7010007B008B500F0CE
:1003B000C9FBA0F120035842584108BD07B541F2DE
:1003C0001203022101A8ADF8043000F0D9FB03B0FC
:1003D0005DF804FB38B572B6302383F3118862B63A
:1003E000174803680BB101F07FFE164A144800233A
:1003F0004FF47A7101F06EFE002383F31188124CE2
:10040000236813B12368013B2360636813B16368F9
:10041000013B63600D4D2B7833B963687BB90220D3
:1004200000F096FC322363602B78032B07D16368BE
:100430002BB9022000F08CFC4FF47A73636038BD56
:1004400068220120D5030008882301208022012092
:10045000084B187003280CD8DFE800F008050208E4
:10046000022000F06BBC022000F05EBC024B0022B8
:100470005A6070478022012088230120F8B5404B44
:10048000404A1C461968013179D004339342F9D1AE
:100490006268A24273D33C4B9B6803F1006303F58F
:1004A000C0339A426BD2002000F09AFB0220FFF783
:1004B000CFFF364B00211A6C19641A6E19661A6E3A
:1004C0005A6C59645A6E59665A6E5A6942F08002E3
:1004D0005A615A6922F080025A615A691A6942F0D7
:1004E00000521A611A6922F000521A611B6972B631
:1004F0004FF0E023C3F8084DD4E90004BFF34F8F59
:10050000BFF36F8F224AC2F88410BFF34F8F536935
:1005100023F480335361BFF34F8FD2F88030C3F39D
:10052000C905C3F34E335B0143F6E07603EA060CDC
:1005300029464CEA81770139C2F87472F9D2203B1E
:1005400013F1200FF2D1BFF34F8FBFF36F8FBFF3C3
:100550004F8FBFF36F8F536923F400335361002330
:10056000C2F85032BFF34F8FBFF36F8F72B6302394
:1005700083F3118862B6854680F308882047F8BD6A
:10058000008001082080010800220120003802407C
:1005900000ED00E02DE9F04F93B0B64B0090202223
:1005A000FF210AA89D6800F013FCB34A1378B3B981
:1005B000B24801211170036072B6302383F31188B1
:1005C00062B603680BB101F08FFDAD4AAB48002362
:1005D0004FF47A7101F07EFD002383F31188009BB4
:1005E00013B1A84B009A1A60A74A009C1378032BFA
:1005F0001EBF00231370A34A4FF0000A18BF5360B8
:10060000D3465646D146012000F098FB24B19D4BBD
:100610001B68002B00F02782002000F093FA039063
:10062000039B002BF2DB012000F07EFB039B213BB0
:100630001F2BE8D801A252F823F000BFBD06000826
:10064000E506000879070008070600080706000805
:10065000070600080B080008DB090008F508000879
:10066000570900087F090008A509000807060008C7
:10067000B709000807060008290A00085D070008F6
:10068000070600086D0A0008C90600085D07000893
:1006900007060008570900080706000807060008B3
:1006A00007060008070600080706000807060008F6
:1006B0000706000807060008790700080220FFF770
:1006C00075FE002840F0F981009B0221BAF1000F6D
:1006D00008BF1C4605A841F21233ADF8143000F0F3
:1006E0004FFA90E74FF47A7000F02CFA071EEBDB1C
:1006F0000220FFF75BFE0028E6D0013F052F00F245
:10070000DE81DFE807F0030A0D1013360523059399
:10071000042105A800F034FA17E056480421F9E74F
:100720005A480421F6E75A480421F3E74FF01C0821
:10073000404600F057FA08F104080590042105A886
:1007400000F01EFAB8F12C0FF2D1012000FA07F7E1
:1007500047EA0B0B5FFA8BFB4FF0000900F084FBBC
:1007600026B10BF00B030B2B08BF0024FFF726FE6E
:1007700049E748480421CDE7002EA5D00BF00B0334
:100780000B2BA1D10220FFF711FE074600289BD0BA
:10079000012000F025FA0220FFF75AFE00261FFA7A
:1007A00086F8404600F02CFA0446B0B10399A1F156
:1007B000400251425141404600F032FA01360028D1
:1007C000EDD1BA46044641F21213022105A8ADF854
:1007D00014303E4600F0D4F915E70120FFF738FE4B
:1007E0002546244B9B68AB4207D9284600F0FAF90E
:1007F000013040F067810435F3E7234B00251D707D
:10080000204BBA465D603E46A8E7002E3FF45CAF41
:100810000BF00B030B2B7FF457AF0220FFF718FEF2
:10082000322000F08FF9B0F10008FFF64DAF18F05C
:1008300003077FF449AF0F4A926808EB0503934220
:100840003FF642AFB8F5807F3FF73EAF124B0193C2
:10085000B84523DD4FF47A7000F074F90390039AE1
:10086000002AFFF631AF019B039A03F8012B0137F1
:10087000EDE700BF0022012084230120682201202F
:10088000D5030008882301208022012004220120B2
:10089000082201200C22012084220120C820FFF719
:1008A00085FD074600283FF40FAF1F2D11D8C5F175
:1008B000200242450AAB25F0030028BF4246834987
:1008C0000192184400F05EFA019A8048FF2100F07E
:1008D0007FFA4FEAA8037D490193C8F387022846AF
:1008E00000F07EFA064600283FF46DAF019B05EB51
:1008F000830533E70220FFF759FD00283FF4E4AEFB
:1009000000F0BAF900283FF4DFAE0027B846704B7C
:100910009B68BB4218D91F2F11D80A9B01330ED0F8
:1009200027F0030312AA134453F8203C05934046D2
:10093000042205A900F002FB04378046E7E73846A9
:1009400000F050F90590F2E7CDF81480042105A8D5
:1009500000F016F902E70023642104A8049300F0D4
:1009600005F900287FF4B0AE0220FFF71FFD002834
:100970003FF4AAAE049800F067F90590E6E700237B
:10098000642104A8049300F0F1F800287FF49CAEE1
:100990000220FFF70BFD00283FF496AE049800F00C
:1009A00063F9EAE70220FFF701FD00283FF48CAE6F
:1009B00000F072F9E1E70220FFF7F8FC00283FF4AD
:1009C00083AE05A9142000F06DF9042107460490B8
:1009D00004A800F0D5F83946B9E7322000F0B2F8A3
:1009E000071EFFF671AEBB077FF46EAE384A926801
:1009F00007EB090393423FF667AE0220FFF7D6FCF0
:100A000000283FF461AE27F003074F44B9453FF497
:100A1000A5AE484600F0E6F80421059005A800F0D0
:100A2000AFF809F10409F1E74FF47A70FFF7BEFC63
:100A300000283FF449AE00F01FF9002844D00A9B7B
:100A400001330BD008220AA9002000F0C9F90028C0
:100A50003AD02022FF210AA800F0BAF9FFF7AEFC35
:100A60001C4801F07BFA13B0BDE8F08F002E3FF474
:100A70002BAE0BF00B030B2B7FF426AE002364216F
:100A800005A8059300F072F8074600287FF41CAE15
:100A90000220FFF78BFC804600283FF415AEFFF7DD
:100AA0008DFC41F2883001F059FA059800F024FAE3
:100AB000464600F0D9F93C46A5E506464EE64FF01D
:100AC000000901E6BA467EE637467CE6842201202C
:100AD00000220120A08601002DE9F84F4FF47A731F
:100AE000DFF85880DFF8589006460D4602FB03F702
:100AF000002498F900305A1C5FFA84FA01D0A3420E
:100B000012D159F8240003682A46D3F820B03146A0
:100B10003B46D847854207D1074B012083F800A008
:100B2000BDE8F88F0124E4E7002CFBD04FF4FA7005
:100B300001F014FA0020F3E7D42301201022012051
:100B40001422012007B50023024601210DF1070000
:100B50008DF80730FFF7C0FF20B19DF8070003B004
:100B60005DF804FB4FF0FF30F9E700000A4608B5D6
:100B70000421FFF7B1FF80F00100C0B2404208BD80
:100B800030B4074B0A461978064B53F821402368C6
:100B9000DD69054B0146AC46204630BC604700BFCE
:100BA000D423012014220120A086010070B501F099
:100BB000E9FC094E094D30800024286833888342BF
:100BC00008D901F0D9FC2B6804440133B4F5C03FC7
:100BD0002B60F2D370BD00BFD623012090230120EB
:100BE00001F07EBD00F1006000F5C0300068704784
:100BF00000F10060920000F5C03001F009BD000076
:100C0000054B1A68054B1B889B1A834202D9104476
:100C100001F0B2BC0020704790230120D6230120B0
:100C200038B5084D044629B128682044BDE838404D
:100C300001F0C2BC2868204401F0A6FC0028F3D0D3
:100C400038BD00BF9023012010F0030309D1B0F597
:100C5000846F04D200F10050A0F57120036818469B
:100C600070470023FBE7000000F10050A0F5712061
:100C7000D0F8200470470000064991F8243033B1C1
:100C80000023086A81F824300822FFF7B1BF012051
:100C9000704700BF94230120014B1868704700BFC4
:100CA000002004E0F0B51E4B1D6801382E0C0A1818
:100CB0001C48C5F30B04032335460788A7420BD114
:100CC00044680B46013C934218461BD214F9010FAD
:100CD00048B103F8010BF6E7013B00F10800ECD145
:100CE00091420ED20B4618462C24B6F5805F00F8D0
:100CF000014B0AD1824202D94122981C5A70401AF3
:100D0000F0BD0846B6F5805FF9D041F201039D427F
:100D1000F5D18242F3D95A2300F8013BEFE700BF37
:100D2000002004E01C220120022802BF024B4FF0E9
:100D300000529A61704700BF00080240022802BFBB
:100D4000024B4FF400529A61704700BF0008024006
:100D5000022801BF024A536983F40053536170476C
:100D60000008024070B504464FF47A764CB1412C2D
:100D7000254628BF412506FB05F001F0EFF8641B6E
:100D8000F4E770BD10B50023934203D0CC5CC4548B
:100D90000133F9E710BD000010B5013810F9013F2B
:100DA0003BB191F900409C4203D11AB10131013AA3
:100DB000F4E71AB191F90020981A10BD1046FCE72B
:100DC00003460246D01A12F9011B0029FAD17047D6
:100DD00002440346934202D003F8011BFAE770472E
:100DE0002DE9F8431F4D144695F824200746884600
:100DF00052BBDFF870909CB395F824302BB92022B9
:100E0000FF2148462F62FFF7E3FF95F82400C0F169
:100E10000802A24228BF2246D6B24146920005EB04
:100E20008000FFF7AFFF95F82430A41B1E44F6B2F4
:100E3000082E17449044E4B285F82460DBD1FFF714
:100E40001BFF0028D7D108E02B6A03EB8203834203
:100E5000CFD0FFF711FF0028CBD10020BDE8F883E9
:100E60000120FBE794230120024B1A78024B1A70F1
:100E7000704700BFD42301201022012038B5194C3F
:100E8000194D204600F0C0FB2946204600F0E8FB43
:100E90002D68EA6ED2F8043843F00203C2F8043831
:100EA0004FF47A70FFF75EFF1049284600F0E6FC29
:100EB000EA6E0F4DD2F8043828680E4923F0020379
:100EC000C2F80438A0424FF4E1330B6001D000F0C7
:100ED000F7FA6868A04204D0BDE83840054900F040
:100EE000EFBA38BDB8280120F03D0008F83D0008F1
:100EF00014220120BC23012070B50C4B0C4D1E7830
:100F00000C4B55F826209A4204460DD00A4B00217E
:100F100018221846FFF75CFF0460014655F82600CA
:100F2000BDE8704000F0CCBA70BD00BFD4230120F2
:100F300014220120B8280120BC23012030B5094D1E
:100F40000A4491420DD011F8013B5840082340F368
:100F50000004013B2C4013F0FF0384EA5000F6D15B
:100F6000EFE730BD2083B8ED72B6302383F31188EC
:100F700062B67047026843681143016003B11847C5
:100F800070470000024A136843F0C00313607047C3
:100F90000010014013B50E4C204600F085FA04F114
:100FA00014000C49009400234FF4807200F046F9BD
:100FB000094B0A4900944FF4807204F1380000F0A4
:100FC000BBF9074A074BC4E9172302B010BD00BFA5
:100FD000D823012044240120850F00084425012046
:100FE0000010014000F36F0630B5037C214C00294E
:100FF00018BF0C46012B0CD11F4B984209D11F4B37
:101000005A6C42F010025A645A6E42F010025A664C
:101010005B6E2268036EC16D846603EB5203B3FB03
:10102000F2F36268150442BF23F0070503F00703DB
:1010300043EA4503CB60A36843F040034B60E36899
:1010400043F001038B6042F4967343F001030B609D
:101050004FF0FF330B62510505D512F0102205D079
:10106000B2F1805F04D080F8643030BD7F23FAE7AE
:101070003F23F8E7043D0008D82301200038024050
:101080002DE9F047C66D3768F469346221070546DB
:1010900018D014F0080118BF4FF48071E20748BF60
:1010A00041F02001A30748BF41F04001600748BF5D
:1010B00041F08001281DFFF757FFFFF75BFF00237A
:1010C00083F31188E20509D54FF48061281DFFF7ED
:1010D0004BFFFFF74FFF002383F311884FF0000908
:1010E00014F0200835D13B0614D505F13809200647
:1010F00010D54846FFF738FF00F050F9002835DAE0
:101100000821281DFFF736FF27F0800333600023F6
:1011100083F31188790613D5620611D5FFF724FFF2
:10112000D5E913239A4208D12B6C33B11021281D25
:1011300027F04007FFF71EFF3760002383F3118875
:10114000E30618D5AA6E1369ABB1BDE8F047506944
:101150001847FFF709FF736A95F86410284619408D
:1011600000F0BAF989F31188F469B9E7B06288F33D
:101170001188F469BBE7BDE8F087000072B6302340
:1011800083F3118862B67047F8B515468268066920
:10119000AA420B46816938BF8568761AB542044673
:1011A0000BD218462A46FFF7EDFDA3692B44A36135
:1011B000A3685B1BA3602846F8BD0CD918463246CD
:1011C000FFF7E0FDAF1BE1683A463044FFF7DAFD78
:1011D000E3683B44EBE718462A46FFF7D3FDE36894
:1011E000E5E7000083689342F7B51546044638BF2B
:1011F0008568D0E90460361AB5420BD22A46FFF75B
:10120000C1FD63692B446361A36828465B1BA3602F
:1012100003B0F0BD0DD932460191FFF7B3FD01993E
:10122000E068AF1B3A463144FFF7ACFDE3683B444E
:10123000E9E72A46FFF7A6FDE368E4E710B50A44AC
:101240000024C361029B8460C0E90000C0E905116D
:10125000C1600261036210BD08B5D0E90532934256
:1012600001D1826882B98268013282605A1C42616F
:101270001970D0E904329A4224BFC3684361002147
:1012800000F088FE002008BD4FF0FF30FBE70000B3
:1012900070B504460D46FFF771FFA668A6B1A368B6
:1012A000A269013BA360531CA36115782269934294
:1012B00024BFE368A361E3690BB12046984700238C
:1012C00083F31188284607E02946204600F052FEA5
:1012D0000028E2DA86F3118870BD00002DE9F84F8E
:1012E000D0F81CA09946FFF749FF04460E469046E9
:1012F00015464FF0000B65B12A4631462046FFF7F0
:1013000043FF074660B94946204600F033FE0028F7
:10131000F1D0002383F31188A8EB0500BDE8F88F16
:10132000BAF1000F01D02046D0478BF31188ED1B96
:101330003E44FFF723FFDEE7C0E90511C160C3614A
:101340001144009B8260C0E90000016103627047A4
:10135000F8B504460D461646FFF710FFA768A7B17B
:10136000A368013BA36063695A1C62611D70D4E9E4
:1013700004329A4224BFE3686361E3690BB12046FB
:101380009847002080F3118807E03146204600F09E
:10139000F1FD0028E2DA87F31188F8BDD0E90523D2
:1013A0009A4210B501D182687AB9826801328260AE
:1013B0005A1C82611C7803699A4224BFC368836106
:1013C000002100F0E7FD204610BD4FF0FF30FBE7A5
:1013D0002DE9F84FD0F81CA09946FFF7CFFE044640
:1013E0000E46904615464FF0000B65B12A46314631
:1013F0002046FFF7F7FE074660B94946204600F051
:10140000B9FD0028F1D0002383F31188A8EB050073
:10141000BDE8F88FBAF1000F01D02046D0478BF31A
:101420001188ED1B3E44FFF7A9FEDEE772B63023BC
:1014300083F3118862B67047026843681143016004
:1014400003B11847704700001430FFF747BF000092
:101450004FF0FF331430FFF741BF00003830FFF783
:10146000B7BF00004FF0FF333830FFF7B1BF0000C7
:101470001430FFF70DBF00004FF0FF311430FFF7BD
:1014800007BF00003830FFF763BF00004FF0FF32A6
:101490003830FFF75DBF0000012914BF6FF0130063
:1014A00000207047FFF776BD044B03600023C0E9BE
:1014B0000233436001230374704700BF1C3D0008E2
:1014C00010B50446FFF7B2FFFFF78EFD0223237429
:1014D000002080F3118810BD38B5C36904460D465D
:1014E0001BB904210844FFF7A7FF294604F11400A3
:1014F000FFF7B2FE002806DA201D4FF40061BDE8B8
:101500003840FFF799BF38BD72B6302383F3118896
:1015100062B67047026843681143016003B118471F
:101520007047000013B5446BD4F894341A681178EE
:10153000042915D1217C022912D11979128901239C
:101540008B4013420CD101A904F14C0001F090FF33
:10155000D4F89444019B21790246206800F0DAF91E
:1015600002B010BD143001F015BF00004FF0FF3382
:10157000143001F00FBF00004C3001F0E5BF000057
:101580004FF0FF334C3001F0DFBF0000143001F0AA
:10159000E5BE00004FF0FF31143001F0DFBE000067
:1015A0004C3001F0B1BF00004FF0FF324C3001F081
:1015B000ABBF00000020704710B5D0F894341A6813
:1015C00011780429044617D1017C022914D15979D4
:1015D000528901238B4013420ED1143001F078FE62
:1015E000024648B1D4F894444FF48073617920687E
:1015F000BDE8104000F07CB910BD0000406BFFF763
:10160000DBBF0000704700007FB5124B0360002372
:101610004360C0E90233012502260F4B05740446DE
:101620000290019300F18402294600964FF48073E2
:10163000143001F029FE094B0294CDE9006304F552
:1016400023724FF48073294604F14C0001F0ECFE44
:1016500004B070BD443D0008FD15000825150008C4
:1016600008B50A68FFF750FF0B7902EB8303186295
:101670004B790D3342F823008B7913B102EB8302CF
:1016800010620223C0F894140374002080F31188C0
:1016900008BD000038B5037F044613B190F85430FC
:1016A000ABB9201D01250221FFF734FF04F114001E
:1016B00025776FF0010100F079FC84F8545004F1B3
:1016C0004C006FF00101BDE8384000F06FBC38BD40
:1016D00010B5012104460430FFF71CFF00232377D7
:1016E00084F8543010BD000038B50446002514308D
:1016F00001F0E2FD04F14C00257701F0ADFE201D64
:1017000084F854500121FFF705FF2046BDE838401A
:10171000FFF752BF90F85C3003F06003202B07D135
:1017200090F85D20212A4FF0000303D81F2A06D825
:1017300000207047222AFBD1C0E9143303E0034A9A
:10174000026507224265836501207047342201202B
:1017500037B5D0F894341A681178042904461AD1A0
:10176000017C022917D11979128901238B40134278
:1017700011D100F14C05284601F02CFF58B101A908
:10178000284601F075FED4F89444019B2179024665
:10179000206800F0BFF803B030BD0000F0B500EBEA
:1017A000810385B01E6A04460D46F6B104EB850739
:1017B000301D0821FFF7A8FEFFF7ACFEFB685B6950
:1017C0001B6806F14C001BB1019001F05FFE01980F
:1017D00003A901F04DFE024648B1039B294620466D
:1017E00000F098F8002383F3118805B0F0BDFB6882
:1017F0005A691268002AF5D01B8A013B1340F1D1C7
:1018000004F15C02EAE700000D3138B550F82140E0
:10181000D4B1FFF779FED4F894241368527903EB1E
:101820008203DB689B695D6845B104216018FFF79E
:1018300071FE294604F1140001F054FD2046FFF723
:10184000BBFE002383F3118838BD00007047000001
:1018500072B6302383F3118862B6704701F08EB8F8
:1018600010B501230446282200F8243B0021FFF78D
:10187000AFFA0023C4E9013310BD000038B50025DC
:10188000FFF7E6FF0446C0E90355C0E90555C0E986
:101890000755416001F082F80223237085F3118817
:1018A000284638BD70B500EB810305465069DA6003
:1018B0000E46144618B110220021FFF789FAA069DC
:1018C00018B110220021FFF783FA31462846BDE8FF
:1018D000704001F02DB90000826802F001128260B0
:1018E0000022C0E90422C0E90622026201F0ACB97C
:1018F000F0B400EB81044789E4680125A4698D40B8
:101900003D43458123600023A2606360F0BC01F089
:10191000C7B90000F0B400EB81040789E468012531
:1019200064698D403D43058123600023A2606360AC
:10193000F0BC01F043BA000070B502230025044654
:101940000370C0E90255C0E90455C0E90655456673
:10195000056280F84C5001F087F863681B6823B17A
:1019600029462046BDE87040184770BD0378052B16
:1019700010B504460AD080F8683005230370436828
:101980001B680BB1042198470023A36010BD000021
:101990000178052906D190F86820436802701B6819
:1019A00003B118477047000070B590F84C300446FA
:1019B00013B1002380F84C3004F15C02204601F0A2
:1019C00065F963689B68B3B994F85C3013F06005FF
:1019D00033D00021204601F01DFC0021204601F0FB
:1019E0000FFC63681B6813B1062120469847062345
:1019F00084F84C3070BD204698470028E4D0B4F8F5
:101A00006230626D9A4288BF636594F95C30656D9F
:101A1000002B80F20281002D00F0F180092384F870
:101A20004C30FFF715FF0021D4E914232046FFF7BF
:101A300071FF002383F31188DCE794F85D2003F045
:101A40007F0343EA022340F20232934200F0C48053
:101A500021D8B3F5807F48D00DD8012B3FD0022B81
:101A600000F09280002BB4D104F1640222650222BE
:101A70006265A365C3E7B3F5817F00F09A80B3F593
:101A8000407FA6D194F85E30012BA2D1B4F8643027
:101A900043F0020332E0B3F5006F4DD017D8B3F531
:101AA000A06F31D0A3F5C063012B92D8636894F87E
:101AB0005E205E6894F85F10B4F860302046B0474E
:101AC000002886D043682365036863651AE0B3F590
:101AD000106F36D040F6024293427FF47AAF5B4BF0
:101AE0002365022363650023C3E794F85E30012B6E
:101AF0007FF46FAFB4F8643023F00203C4E91455E7
:101B0000A4F86430A5657AE7B4F85C30B3F5A06F4B
:101B10000ED194F85E3084F86630204600F0FCFF69
:101B200063681B6813B10121204698470323237083
:101B30000023C4E914339CE704F167032365012300
:101B4000C3E72378042B0FD12046FFF781FEFFF770
:101B5000C3FE85F311880321636884F86750217000
:101B60001B680BB12046984794F85E30002BDFD0FD
:101B700084F867300423237063681B68002BD7D078
:101B8000022120469847D3E794F860301D0603F001
:101B90000F0120460AD501F06BF8012804D0022875
:101BA0007FF417AF2A4B9BE72A4B99E701F052F8D5
:101BB000F3E794F85E30002B7FF40BAF94F86030BD
:101BC00013F00F01B4D01A06204602D501F036FBFF
:101BD000AEE701F029FBABE794F85E30002B7FF411
:101BE000F8AE94F8603013F00F01A1D01B06204628
:101BF00002D501F00FFB9BE701F002FB98E71423ED
:101C000084F84C30FFF724FE2A462B46294620460E
:101C1000FFF76EFE85F31188ECE65DB1152384F8BD
:101C20004C30FFF715FE0021D4E914232046FFF7BE
:101C30005FFEFEE60B2384F84C30FFF709FE2A46D0
:101C40002B4629462046FFF765FEE3E7743D000872
:101C50006C3D0008703D000838B590F84C300446E3
:101C6000002B3CD0063BDAB20F2A32D80F2B30D8EB
:101C7000DFE803F0352F2F0821302F2F2F2F2F2FA4
:101C80002F2F3535456DB0F862309D4213D2C368B1
:101C90001B8AB5FBF3F203FB125565B9FFF7D8FDBC
:101CA0002A462B462946FFF735FE85F311880A237D
:101CB00084F84C300DE0142384F84C30FFF7C8FD55
:101CC00000231A4619462046FFF712FE002383F32D
:101CD000118838BD836D03B198470023E8E70021E0
:101CE000204601F097FA0021204601F089FA636846
:101CF0001B6813B10621204698470623D8E7000049
:101D000010B590F84C30142B044628D017D8062B69
:101D100005D001D81BB110BD093B022BFBD8002117
:101D2000204601F077FA0021204601F069FA636845
:101D30001B6813B1062120469847062318E0152B8F
:101D4000E9D10B2380F84C30FFF782FD00231A46BF
:101D50001946FFF7DFFD002383F31188DBE7C36833
:101D60009B695B68002BD6D1836D03B19847002334
:101D700084F84C30CFE700000023037582680369C4
:101D80001B6899689142FBD25A68036042601060F8
:101D90005860704700230375826803691B6899685F
:101DA0009142FBD85A6803604260106058607047E7
:101DB00008B5084672B6302383F3118862B60B7DEE
:101DC000032B05D0042B0DD02BB983F3118808BD4C
:101DD0008B6900221A604FF0FF338361FFF7CCFF5D
:101DE0000023F2E7D1E9003213605A60F3E7000004
:101DF000FFF7C2BF054BD9680875186802681A60FA
:101E0000536001220275D860FEF78CBA4826012083
:101E100030B50C4BDD684B1C87B004460FD02B4609
:101E2000094A684600F056F92046FFF7E3FF009B99
:101E300013B1684600F058F9A86907B030BDFFF744
:101E4000D9FFF9E748260120B11D0008044B1A68A4
:101E5000DB6890689B68984294BF0020012070471F
:101E600048260120084B10B51C68D86822681A6003
:101E7000536001222275DC60FFF78CFF014620468B
:101E8000BDE81040FEF74EBA4826012038B5074C91
:101E900007490848012300252370656001F0D2FB43
:101EA0000223237085F3118838BD00BFB0280120BC
:101EB0007C3D00084826012000F04CB9034A5168D7
:101EC00053685B1A9842FBD8704700BF001000E0CF
:101ED00072B6302383F3118862B670478B60022399
:101EE00008618B82084670478368A3F1840243F837
:101EF000142C026943F8442C426943F8402C094AE7
:101F000043F8242CC26843F8182C022203F80C2C46
:101F1000002203F80B2C044A43F8102CA3F12000F4
:101F2000704700BF3D0300084826012008B5FFF7B1
:101F3000DBFFBDE80840FFF75BBF0000024BDB683A
:101F400098610F20FFF756BF4826012008B5FFF71C
:101F5000BFFFBDE80840FFF7F1BF000008B501462C
:101F60000820FFF7B5FFFFF753FF002383F3118825
:101F700008BD0000064BDB6839B1426818605A6042
:101F8000136043600420FFF743BF4FF0FF307047FA
:101F9000482601200368984206D01A680260506003
:101FA00099611846FFF724BF7047000038B5044612
:101FB0000D462068844200D138BD036823605C6010
:101FC0008561FFF715FFF4E710B503689C68A2422E
:101FD0000CD85C688A600B604C602160596099681D
:101FE0008A1A9A604FF0FF33836010BD1B68121B82
:101FF000ECE700000A2938BF0A2170B504460D46F7
:102000000A26601901F018FB01F004FB041BA5422D
:1020100003D8751C2E460446F3E70A2E04D9BDE802
:102020007040012001F04EBB70BD0000F8B5144BAC
:102030000D46D96103F1100141600A2A19698260D5
:1020400038BF0A22016048601861A818144601F0E0
:10205000E5FA0A2701F0DEFA431BA342064606D33F
:102060007C1C281901F0E8FA27463546F2E70A2FCA
:1020700004D9BDE8F840012001F024BBF8BD00BF41
:1020800048260120F8B506460D4601F0C3FA0F4A6E
:10209000134653F8107F9F4206D12A460146304628
:1020A000BDE8F840FFF7C2BFD169BB68441A2C19DC
:1020B00028BF2C46A34202D92946FFF79BFF2246A0
:1020C00031460348BDE8F840FFF77EBF48260120AF
:1020D0005826012010B4C0E9032300235DF8044B07
:1020E0004361FFF7CFBF000010B5194C2369984238
:1020F0000DD0D0E90032816813605A609A680A44B2
:102100009A60002303604FF0FF33A36110BD2346A4
:10211000026843F8102F53600022026022699A423D
:1021200003D1BDE8104001F081BA936881680B4487
:10213000936001F06FFA2269E1699268441AA24241
:10214000E4D91144BDE81040091AFFF753BF00BF9E
:10215000482601202DE9F047DFF8C08008F110077C
:102160002D4ED8F8105001F055FAD8F81C40AA6846
:10217000031B9A4240D81444D5E900324FF00009BD
:10218000C8F81C4013605A60C5F80090D8F81030A9
:10219000B34201D101F04AFA89F31188D5E903313C
:1021A0002846984772B6302383F3118862B66B696C
:1021B000002BD6D001F02EFA6A69A0EB04094A453B
:1021C00082460DD2022001F07DFA0022D8F81030AC
:1021D000B34208D151462846BDE8F047FFF726BF75
:1021E000121A2244F2E712EB090938BF4A4629467F
:1021F0003846FFF7E9FEB3E7D8F81030B34208D00D
:102200001444211AC8F81C00A960BDE8F047FFF784
:10221000F1BEBDE8F08700BF582601204826012006
:1022200000207047FEE70000704700004FF0FF30CD
:102230007047000072B6302383F3118862B670478E
:1022400002290CD0032904D00129074818BF002017
:102250007047032A05D8054800EBC20070470448C0
:1022600070470020704700BF543E00084422012000
:10227000083E000870B59AB00546084601A9144604
:1022800000F0BEF801A8FEF79BFD431C5B00C5E90A
:1022900000340022237003236370C6B201AB023402
:1022A0001046D1B28E4204F1020401D81AB070BDBA
:1022B00013F8011B04F8021C04F8010C0132F0E7CA
:1022C00008B50448FFF7B6FFFFF742FA002383F38F
:1022D000118808BDB828012090F85C3003F01F0277
:1022E000012A07D190F85D200B2A03D10023C0E911
:1022F000143315E003F06003202B08D1B0F86030F0
:102300002BB990F85D20212A03D81F2A04D8FFF7A3
:1023100001BA222AEBD0FAE7034A02650722426596
:1023200083650120704700BF3B22012007B50529C6
:1023300016D8DFE801F018150318181E104A0121FD
:10234000FFF778FF0190FFF7ADFA01980D4A0221DF
:10235000FFF7A8FA0C48FFF7C7F9002383F31188A9
:1023600003B05DF804FB0848FFF764FFFFF792F93C
:10237000F3E70548FFF75EFFFFF7AAF9EDE700BFB7
:10238000A83D0008CC3D0008B828012038B50C4D08
:102390000C4C0D492A4604F10800FFF76BFF05F1CC
:1023A000CA0204F110000949FFF764FF05F5CA727B
:1023B00004F118000649BDE83840FFF75BBF00BFD5
:1023C000802D012044220120883D0008923D000814
:1023D0009D3D000870B5044608460D46FEF7F0FC2A
:1023E000C6B22046013403780BB9184670BD324698
:1023F0002946FEF7D1FC0028F3D10120F6E70000C2
:102400002DE9F04705460C46FEF7DAFC2B49C6B22B
:102410002846FFF7DFFF08B10B36F6B228492846F9
:10242000FFF7D8FF08B11036F6B2632E0BD8DFF8ED
:102430008C80DFF88C90234FDFF894A02E7846B97B
:102440002670BDE8F08729462046BDE8F04701F038
:102450003BBC252E2ED1072241462846FEF79CFC88
:1024600070B9194B224603F1100153F8040B42F8DE
:10247000040B8B42F9D11B88138007351234DDE73A
:10248000082249462846FEF787FC98B90F4BA21C44
:10249000197809090232C95D02F8041C13F8011BFE
:1024A00001F00F015345C95D02F8031CF0D1183447
:1024B0000835C3E704F8016B0135BFE7743E000837
:1024C0009D3D00088F3E00087C3E000820F4F01F70
:1024D0002CF4F01FBFF34F8F024AD368DB03FCD408
:1024E000704700BF003C024008B5074B1B7853B94A
:1024F000FFF7F0FF054B1A69002ABFBF044A5A6074
:1025000002F188325A6008BDDE2F0120003C0240F3
:102510002301674508B5054B1B7833B9FFF7DAFF90
:10252000034A136943F00043136108BDDE2F012005
:10253000003C02400728F0B516D80C4C0C49237813
:102540007BB90C4D0E4608234FF0006255F8047B12
:1025500046F8042B013B13F0FF033A44F6D1012364
:10256000237051F82000F0BD0020FCE7003001206E
:10257000E02F0120A03E0008014B53F820007047D7
:10258000A03E000808207047072810B5044601D96E
:10259000002010BDFFF7CEFF064B53F8243018443F
:1025A000C21A0BB90120F4E712680132F0D1043BE2
:1025B000F6E700BFA03E0008072810B5044621D862
:1025C000FFF788FFFFF790FF0F4AF323D360C300A4
:1025D000DBB243F4007343F002031361136943F465
:1025E00080331361FFF776FFFFF7A4FF074B53F823
:1025F000241000F0D9F8FFF78DFF2046BDE8104009
:10260000FFF7C2BF002010BD003C0240A03E000802
:10261000F8B512F00103144642D18218B2F1016FED
:1026200057D82D4B1B6813F0010352D02B4DFFF7E9
:102630005BFFF323EB60FFF74DFF40F20127032C14
:1026400015D824F001046618244C401A40F20117F2
:10265000B142236900EB010524D123F0010323617A
:10266000FFF758FF0120F8BD043C0430E7E783077B
:10267000E7D12B6923F440732B612B693B432B611A
:1026800051F8046B0660BFF34F8FFFF723FF036819
:102690009E42E9D02B6923F001032B61FFF73AFF3B
:1026A0000020E0E723F44073236123693B43236167
:1026B0000B882B80BFF34F8FFFF70CFF2D8831F86D
:1026C000023BADB2AB42C3D0236923F001032361C7
:1026D000E4E71846C7E700BF00380240003C02406C
:1026E000084908B50B7828B11BB9FFF7FDFE012397
:1026F0000B7008BD002BFCD0BDE808400870FFF748
:1027000009BF00BFDE2F012010B50244064BD2B234
:10271000904200D110BD441C00B253F8200041F893
:10272000040BE0B2F4E700BF502800400F4B30B577
:102730001C6F240407D41C6F44F400741C671C6FC6
:1027400044F400441C670A4C236843F480732360FC
:102750000244084BD2B2904200D130BD441C00B2BA
:1027600051F8045B43F82050E0B2F4E7003802402F
:10277000007000405028004007B5012201A9002048
:10278000FFF7C2FF019803B05DF804FB13B50446E0
:10279000FFF7F2FFA04205D0012201A90020019419
:1027A000FFF7C4FF02B010BD0144BFF34F8F064BCB
:1027B000884204D3BFF34F8FBFF36F8F7047C3F8C6
:1027C0005C022030F4E700BF00ED00E0034B1A6824
:1027D0001AB9034AD2F874281A60704704300120ED
:1027E0000030024008B5FFF7F1FF024B1868C0F354
:1027F000407008BD0430012070B5BFF34F8FBFF3A8
:102800006F8F1A4A0021C2F85012BFF34F8FBFF3E7
:102810006F8F536943F400335361BFF34F8FBFF39E
:102820006F8FC2F88410BFF34F8FD2F88030C3F39C
:10283000C900C3F34E335B0143F6E07403EA0406B8
:10284000014646EA81750139C2F86052F9D2203B4F
:1028500013F1200FF2D1BFF34F8F536943F480334C
:102860005361BFF34F8FBFF36F8F70BD00ED00E07A
:10287000FEE7000070B5214B2148224A904237D331
:10288000214BDA1C121AC11E22F003028B4238BF00
:1028900000220021FEF79CFA1C4A0023C2F8843073
:1028A000BFF34F8FD2F88030C3F3C900C3F34E3368
:1028B0005B0143F6E07403EA0406014646EA8175CB
:1028C0000139C2F86C52F9D2203B13F1200FF2D13A
:1028D000BFF34F8FBFF36F8FBFF34F8FBFF36F8F78
:1028E0000023C2F85032BFF34F8FBFF36F8F70BD1C
:1028F00053F8041B40F8041BC0E700BF94400008D5
:1029000018310120183101201831012000ED00E0BC
:1029100070B5D0E91B439E6800224FF0FF3504EBF1
:1029200042135101D3F800090028BEBFD3F80009B3
:1029300040F08040C3F80009D3F8000B0028BEBF68
:10294000D3F8000B40F08040C3F8000B013263184D
:102950009642C3F80859C3F8085BE0D24FF0011360
:10296000C4F81C3870BD0000890141F020010161EC
:1029700003699B06FCD41220FFF7A0BA10B5054CE2
:102980002046FEF76DFF4FF0A043E366024B23673E
:1029900010BD00BF08300120E43E000870B5037888
:1029A000012B054650D12A4BC46E98421BD1294BAE
:1029B0005A6B42F080025A635A6D42F080025A65A7
:1029C0005A6D5A6942F080025A615A6922F08002B7
:1029D0005A610E2143205B6900F03AFC1E4BE36014
:1029E0001E4BC4F800380023C4F8003EC023236007
:1029F000EE6E4FF40413A3633369002BFCDA01235A
:102A000033610C20FFF75AFA3369DB07FCD412203C
:102A1000FFF754FA3369002BFCDA0026A66028463B
:102A2000FFF776FF6B68C4F81068DB68C4F81468B9
:102A3000C4F81C684BB90A4BA3614FF0FF336361C4
:102A4000A36843F00103A36070BD064BF4E700BF29
:102A500008300120003802404014004003002002EA
:102A6000003C30C0083C30C0F8B5C46E05460021BB
:102A70002046FFF779FF296F00234FF001128F687E
:102A8000C4F834384FF00066C4F81C284FF0FF300B
:102A900004EB431201339F42C2F80069C2F8006B95
:102AA000C2F80809C2F8080BF2D20B68EA6E6B672D
:102AB000636210231361166916F01006FBD1122011
:102AC000FFF7FCF9D4F8003823F4FE63C4F80038AB
:102AD000A36943F4402343F01003A3610923C4F81E
:102AE0001038C4F814380A4BEB604FF0C043C4F8F8
:102AF000103B084BC4F8003BC4F81069C4F8003917
:102B00006B6F03F1100243F480136A67A362F8BD90
:102B1000C03E000840800010C26E90F86610D2F8E7
:102B2000003823F4FE6343EA0113C2F8003870470B
:102B30002DE9F84300EB8103C56EDA68166806F0EC
:102B40000306731E022B05EB41130C4680460FFA59
:102B500081F94FEA41104FF00001C3F8101B4FF00C
:102B6000010104F1100398BFB60401FA03F391695F
:102B70008EBF334E06F1805606F5004600293AD046
:102B8000578A04F15801490137436F50D5F81C1892
:102B90000B43C5F81C382B180021C3F810195369D2
:102BA0000127611EA7409BB3138A928B9B08012AC1
:102BB00088BF5343D8F87420981842EA034301F1C0
:102BC000400205EB8202C8F8740021465360284693
:102BD000FFF7CAFE08EB8900C3681B8A43EA8453E7
:102BE000483464011E432E51D5F81C381F43C5F8E4
:102BF0001C78BDE8F88305EB4917D7F8001B21F4D2
:102C00000041C7F8001BD5F81C1821EA0303C0E7F0
:102C100004F13F0305EB83030A4A5A602846214624
:102C2000FFF7A2FE05EB4910D0F8003923F400436A
:102C3000C0F80039D5F81C3823EA0707D7E700BFEA
:102C40000080001000040002026F12684267FFF764
:102C50005FBE00005831C36E49015B5813F4004059
:102C600004D013F4001F0CBF0220012070470000A5
:102C70004831C36E49015B5813F4004004D013F48B
:102C8000001F0CBF022001207047000000EB8101F3
:102C9000CB68196A0B6813604B685360704700007B
:102CA00000EB810330B5DD68AA691368D36019B9F8
:102CB000402B84BF402313606B8A1468C26E1C448F
:102CC000013CB4FBF3F46343033323F0030302EB4F
:102CD000411043EAC44343F0C043C0F8103B2B68A3
:102CE00003F00303012B09B20ED1D2F8083802EB2E
:102CF000411013F4807FD0F8003B14BF43F08053A1
:102D000043F00053C0F8003B02EB4112D2F8003B05
:102D100043F00443C2F8003B30BD00002DE9F04110
:102D2000254DEE6E06EB40130446D3F8087BC3F83E
:102D3000087B38070AD5D6F81438190706D505EBED
:102D400084032146DB6828465B689847FA0721D54B
:102D5000D6F81438DB071DD505EB8403D968DCB938
:102D60008B69488A5A68B2FBF0F600FB16229AB9C2
:102D70001868DA6890420FD2121AC3E9002472B6BA
:102D8000302383F3118862B60B482146FFF788FF92
:102D900084F31188BDE8F081012303FA04F26B8902
:102DA00023EA02036B81CB68002BF3D02146024853
:102DB000BDE8F041184700BF0830012000EB810357
:102DC00070B5DD68C36E6C692668E6604A0156BB63
:102DD0001A444FF40020C2F810092A6802F00302D6
:102DE000012A0AB20ED1D3F8080803EB421410F4FA
:102DF000807FD4F8000914BF40F0805040F00050AC
:102E0000C4F8000903EB4212D2F8000940F0044074
:102E1000C2F80009D3F83408012202FA01F1014393
:102E2000C3F8341870BD19B9402E84BF402020600B
:102E300020682E8A8419013CB4FBF6F440EAC440B1
:102E400040F000501A44C6E72DE9F8433C4DEE6EC1
:102E500006EB40130446D3F80889C3F8088918F034
:102E6000010F4FEA40171CD0D6F81038DB0718D5F1
:102E700005EB8003D9684B691868DA68904232D252
:102E8000121A4FF000091A60C3F8049072B630238A
:102E900083F3118862B621462846FFF78FFF89F336
:102EA000118818F0800F1CD0D6F834380126A640BF
:102EB000334216D005EB8403ED6ED3F80CC0DCF87A
:102EC00014200134E4B2D2F800E005EB04342F44BE
:102ED0005168714515D3D5F8343823EA0606C5F88C
:102EE0003468BDE8F883012303FA04F22B8923EA4E
:102EF00002032B818B68002BD3D0214628469847AC
:102F0000CFE7BCF81000AEEB0103834228BF0346B5
:102F1000D7F8180980B2B3EB800FE2D89068A0F11F
:102F2000040959F8048FC4F80080A0EB09089844FC
:102F3000B8F1040FF5D818440B4490605360C7E70C
:102F4000083001202DE9F74FAC4CE56E6E69AB6996
:102F50001E4016F480586E6107D02046FEF7ECFC48
:102F600003B0BDE8F04F00F06BBC002E12DAD5F8CC
:102F7000003EA2489B071EBFD5F8003E23F0030386
:102F8000C5F8003ED5F8043823F00103C5F804382D
:102F9000FEF7FEFC370505D59848FFF7B9FC9748C2
:102FA000FEF7E4FCB0040CD5D5F8083813F0060F92
:102FB000EB6823F470530CBF43F4105343F4A05355
:102FC000EB6031071BD56368DB681BB9AB6923F085
:102FD0000803AB612378052B0CD1D5F8003E874858
:102FE0009A071EBFD5F8003E23F00303C5F8003E44
:102FF000FEF7CEFC6368DB680BB180489847F302AC
:1030000000F18980B70227D5D4F86C90DFF8ECB1D5
:1030100000274FF0010A09EB4712D2F8003B03F4F6
:103020004023B3F5802F11D1D2F8003B002B0DDAED
:1030300062890AFA07F322EA0303638104EB870338
:10304000DB68DB6813B1394658469847236F013770
:103050009B68FFB29F42DED9F00617D5E76E3A6A49
:10306000C2F30A1002F00F0302F4F012B2F5802F3F
:1030700000F09980B2F5402F08D104EB83030022C1
:10308000DB681B6A07F5805790427ED13303D5F881
:1030900018481DD5E70302D50020FFF73FFEA50322
:1030A00002D50120FFF73AFE600302D50220FFF7A8
:1030B00035FE210302D50320FFF730FEE20202D5E0
:1030C0000420FFF72BFEA30202D50520FFF726FE02
:1030D00077037FF545AFE60702D50020FFF7B4FE82
:1030E000A50702D50120FFF7AFFE600702D5022039
:1030F000FFF7AAFE210702D50320FFF7A5FEE2068F
:1031000002D50420FFF7A0FEA3067FF529AF052016
:10311000FFF79AFE24E7E36EDFF8E0A001930027B3
:103120004FF00109236F9B685FFA87FB9B453FF6D1
:1031300069AF019B03EB4B13D3F8001901F4402155
:10314000B1F5802F1FD1D3F8001900291BDAD3F86D
:10315000001941F09041C3F80019D3F80019002973
:10316000FBDB5946E06EFFF7FFFB218909FA0BF301
:1031700021EA0303238104EB8B03DB689B6813B113
:103180005946504698470137CCE7910708BFD7F812
:103190000080072A98BF03F8018B02F1010298BF53
:1031A0004FEA182870E7023304EB830207F58057D3
:1031B0005268D2F818C0DCF80820DCE9001CA1EB4A
:1031C0000C0C002188420AD104EB830463689B69DC
:1031D0009A6802449A605A6802445A6056E711F0AD
:1031E000030F08BFD7F800808C4588BF02F8018B19
:1031F00001F1010188BF4FEA1828E3E708300120F8
:10320000C36E03EB4111D1F8003B43F40013C1F846
:10321000003B7047C36E03EB4111D1F8003943F412
:103220000013C1F800397047C36E03EB4111D1F8A8
:10323000003B23F40013C1F8003B7047C36E03EB5F
:103240004111D1F8003923F40013C1F80039704757
:1032500000F1604303F561430901C9B283F800132B
:10326000012200F01F039A4043099B0003F16043D1
:1032700003F56143C3F880211A60704772B63023AA
:1032800083F3118862B6704730B5039C0172043332
:1032900004FB0325C0E90653049B03630021059B3F
:1032A000C160C0E90000C0E90422C0E90842C0E9E9
:1032B0000A11436330BD0000416A0022C0E90411D5
:1032C000C0E90A22C2606FF00101FEF76FBE000084
:1032D000D0E90432934201D1C2680AB9181D70477F
:1032E0000020704703691960C2680132C260C26978
:1032F000134482690361934224BF436A036100213E
:10330000FEF748BE38B504460D46E3683BB1626936
:10331000131D1268A3621344E362002007E0237ABE
:1033200033B929462046FEF725FE0028EDDA38BDE0
:103330006FF00100FBE70000C368C269013BC36096
:103340004369134482694361934224BF436A4361E2
:1033500000238362036B03B11847704770B5FFF712
:103360008DFF866A04463EB9FFF7CCFF054618B1CB
:1033700086F31188284670BDA36AE26A13F8015BE0
:10338000A362934202D32046FFF7D6FF002383F3C4
:103390001188EFE72DE9F0479846FFF76FFF00250A
:1033A00004460E461746A946D4F828A0BAF1000FE5
:1033B00009D141462046FFF7A5FF20B18AF31188C5
:1033C0002846BDE8F087D4E90A12A7EB050A521A8D
:1033D000924528BF9246BAF1400F1BD9334601F1FE
:1033E000400251F8040B43F8040B9142F9D1A36A4F
:1033F00040334036A3624035D4E90A239A4202D3CF
:103400002046FFF799FF89F31188BD42D8D2FFF714
:1034100035FFC9E730465246FDF7B4FCA36A534472
:103420005644A3625544E7E710B5029C0172043389
:1034300003FB0421C0E906130023C0E90A33039B00
:103440000363049BC460C0E90000C0E90422C0E932
:103450000842436310BD0000026AC260426AC0E9CC
:1034600004220022C0E90A226FF00101FEF79EBD8E
:10347000D0E904239A4201D1C26822B9184650F813
:10348000043B0B60704700231846FAE7C368C26923
:103490000133C3604369134482694361934224BF8B
:1034A000436A43610021FEF775BD000038B504464C
:1034B0000D46E3683BB123691A1DA262E269134419
:1034C000E362002007E0237A33B929462046FEF75D
:1034D00051FD0028EDDA38BD6FF00100FBE7000078
:1034E00003691960C268013AC260C2691344826903
:1034F0000361934224BF436A036100238362036B29
:1035000003B118477047000070B5FFF7B7FE866A31
:103510000D46044611462EB9FFF7C8FF10B186F3D9
:10352000118870BDA36A1D70A36AE26A01339342D9
:10353000A36204D3E16920460439FFF7D1FF0020DC
:1035400080F31188EDE700002DE9F0479946FFF779
:1035500095FE002604460D469046B246A76A4FB92E
:1035600049462046FFF7A2FF20B187F31188304675
:10357000BDE8F087D4E90A073A1AA8EB0607974294
:1035800028BF1746402F1BD905F1400355F8042BDF
:1035900040F8042B9D42F9D1A36A4033A362403620
:1035A000D4E90A239A4204D3E16920460439FFF79B
:1035B00097FF8AF311884645D9D2FFF75FFECDE722
:1035C00029463A46FDF7DEFBA36A3B443D44A3622D
:1035D0003E44E5E7D0E904239A4217D1C3689BB182
:1035E000836A8BB1043B9B1A0ED01360C368013B06
:1035F000C360C3691A44836902619A4224BF436A63
:103600000361002383620123184670470023FBE710
:1036100000F042B94FF08043586A70474FF0804342
:10362000002258631A610222DA6070474FF080432B
:103630000022DA60704700004FF080435863704703
:10364000FEE7000070B51B4B01630025044686B001
:10365000586085620E4600F0CBF804F11003C4E90F
:1036600004334FF0FF33C4E90635C4E90044A560D4
:10367000E562FFF7CFFF2B460246C4E9082304F1B9
:1036800034010D4A256580232046FEF727FC0123DF
:10369000E0600A4A0375009272680192B268CDE94F
:1036A0000223074B6846CDE90435FEF73FFC06B020
:1036B00070BD00BFB0280120F03E0008F53E0008B4
:1036C00041360008024AD36A1843D062704700BFEF
:1036D000482601204B6843608B688360CB68C360D9
:1036E0000B6943614B6903628B6943620B6803603A
:1036F0007047000008B52C4B2C481A6940F2FF7146
:103700000A431A611A6922F4FF6222F007021A6161
:103710001A691A6B0A431A631A6D0A431A65244A16
:103720001B6D1146FFF7D6FF02F11C0100F580600A
:10373000FFF7D0FF02F1380100F58060FFF7CAFF04
:1037400002F1540100F58060FFF7C4FF02F170013F
:1037500000F58060FFF7BEFF02F18C0100F580608C
:10376000FFF7B8FF02F1A80100F58060FFF7B2FF94
:1037700002F1C40100F58060FFF7ACFF02F1E00147
:1037800000F58060FFF7A6FF02F1FC0100F5806004
:10379000FFF7A0FF02F58C7100F58060FFF79AFF3C
:1037A000BDE8084000F0EEB80038024000000240DA
:1037B000FC3E000808B500F067FAFEF767FBFFF76C
:1037C00005F8BDE80840FEF7E1BD000070470000C5
:1037D000EFF3098305494A6B22F001024A6368331B
:1037E00083F30988002383F31188704700EF00E01A
:1037F000302080F3118862B60D4B0E4AD96821F44F
:10380000E0610904090C0A43DA60D3F8FC200A4994
:1038100042F08072C3F8FC20084AC2F8B01F116859
:1038200041F0010111602022DA7783F8220070470D
:1038300000ED00E00003FA0555CEACC5001000E035
:1038400010B572B6302383F3118862B60E4B5B68F5
:1038500013F4006314D0F1EE103AEFF30984683CDE
:103860004FF08073E361094BDB6B236684F30988B7
:10387000FEF7ECFA10B1064BA36110BD054BFBE758
:1038800083F31188F9E700BF00ED00E000EF00E0EE
:103890004F030008520300080F4B1A6C42F001025C
:1038A0001A641A6E42F001021A660C4A1B6E936883
:1038B00043F0010393604FF080436B229A624FF014
:1038C000FF32DA6200229A615A63DA605A6001229A
:1038D0005A611A60704700BF00380240002004E0BF
:1038E0004FF0804208B51169D3680B40D9B2C94383
:1038F0009B07116109D572B6302383F3118862B634
:10390000FEF7DAFA002383F3118808BD1B4B1A690E
:103910006FEA42526FEA52521A611A69C2F30A02FE
:103920001A614FF0FF301A695A69586100215A69CB
:1039300059615A691A6A62F080521A621A6A02F070
:1039400080521A621A6A5A6A58625A6A59625A6AE4
:103950000B4A106840F480701060186F00F44070DB
:10396000B0F5007F1EBF4FF48030186719675368A9
:1039700023F40073536000F05FB900BF00380240C9
:1039800000700040374B4FF080521A64364A4FF4B3
:10399000404111601A6842F001021A601A689207E9
:1039A000FCD59A6822F003029A602E4B9A6812F0B6
:1039B0000C02FBD1196801F0F90119609A601A68CC
:1039C00042F480321A601A689003FCD55A6F42F0B4
:1039D00001025A67234B5A6F9107FCD5234A5A605C
:1039E0001A6842F080721A601F4B5A685204FCD564
:1039F0001A6842F480321A605A68D003FCD51A68FB
:103A000042F400321A60184A53689903FCD5154BEA
:103A10001A689201FCD5164A9A6040F20112C3F866
:103A20008C200022C3F89020124A40F20733136022
:103A3000136803F00F03072BFAD10A4B9A6842F080
:103A400002029A609A6802F00C02082AFAD15A6CB3
:103A500042F480425A645A6E42F480425A665B6E67
:103A6000704700BF0038024000700040086C4009F9
:103A700000948838003C0240074A08B5536903F0B7
:103A80000103536123B1054A13680BB1506898478D
:103A9000BDE80840FFF7D4BE003C0140983001204B
:103AA000074A08B5536903F00203536123B1054A7D
:103AB00093680BB1D0689847BDE80840FFF7C0BED7
:103AC000003C014098300120074A08B5536903F0D3
:103AD0000403536123B1054A13690BB15069984738
:103AE000BDE80840FFF7ACBE003C01409830012023
:103AF000074A08B5536903F00803536123B1054A27
:103B000093690BB1D0699847BDE80840FFF798BEAC
:103B1000003C014098300120074A08B5536903F082
:103B20001003536123B1054A136A0BB1506A9847D9
:103B3000BDE80840FFF784BE003C014098300120FA
:103B4000164B10B55C6904F478725A61A30604D56B
:103B5000134A936A0BB1D06A9847600604D5104A9D
:103B6000136B0BB1506B9847210604D50C4A936B2D
:103B70000BB1D06B9847E20504D5094A136C0BB121
:103B8000506C9847A30504D5054A936C0BB1D06CD3
:103B90009847BDE81040FFF753BE00BF003C01400E
:103BA00098300120194B10B55C6904F47C425A61CD
:103BB000620504D5164A136D0BB1506D9847230565
:103BC00004D5134A936D0BB1D06D9847E00404D52A
:103BD0000F4A136E0BB1506E9847A10404D50C4ADE
:103BE000936E0BB1D06E9847620404D5084A136FE8
:103BF0000BB1506F9847230404D5054A936F0BB15E
:103C0000D06F9847BDE81040FFF71ABE003C014056
:103C10009830012008B50348FDF732FABDE80840A6
:103C2000FFF70EBED823012008B5FFF759FEBDE807
:103C30000840FFF705BE0000062108B50846FFF75B
:103C400007FB06210720FFF703FB06210820FFF7EB
:103C5000FFFA06210920FFF7FBFA06210A20FFF7E9
:103C6000F7FA06211720FFF7F3FA06212820FFF7BD
:103C7000EFFA07211C20FFF7EBFABDE808400C2102
:103C80002520FFF7E5BA000008B5FFF73FFE00F07A
:103C90000DF8FDF707FCFDF7E1FDFDF7B3FCFFF7BD
:103CA00095FDBDE80840FFF7B3BC00000023054ABE
:103CB00019460133102BC2E9001102F10802F8D1B4
:103CC000704700BF98300120034611F8012B03F81C
:103CD000012B002AF9D1704753544D3332463F3FF0
:103CE0003F3F3F3F0053544D333246375B347C35C2
:103CF0005D780053544D333246375B367C375D7800
:103D0000000000000096000000000000000000001D
:103D100000000000000000000000000000000000A3
:103D200065140008511400088D1400087914000867
:103D300085140008711400085D1400084914000877
:103D40009914000800000000811500086D15000896
:103D5000A915000895150008A11500088D15000883
:103D60007915000865150008B51500080000000069
:103D7000010000000000000063300000783D0008F2
:103D8000A0260120B02801204172647550696C6F33
:103D9000740025424F415244252D424C0025534585
:103DA0005249414C250000000200000000000000C4
:103DB0009D1700080918000840004000502D012000
:103DC000602D012002000000000000000300000040
:103DD000000000004D180008000000001000000066
:103DE000702D012000000000010000000000000014
:103DF00008300120010102002D23000841220008A3
:103E0000D9220008C122000843000000103E00082B
:103E100009024300020100C032090400000102024D
:103E20000100052400100105240100010424020200
:103E30000524060001070582030800FF09040100AC
:103E4000020A000000070501024000000705810288
:103E500040000000120000005C3E0008120110014A
:103E60000200004009124157000201020301000054
:103E70000403090425424F4152442500466F7865EA
:103E8000657252656170657246373435563400305C
:103E900031323334353637383941424344454600B0
:103EA0000080000000800000008000000080000012
:103EB00000000200000004000000040000000400F4
:103EC00000000000A9190008591C0008011D000885
:103ED00040004000803001208030012001000000BF
:103EE000903001208000000040010000050000002B
:103EF0006D61696E0069646C650000000000A86A6D
:103F000000000000AAAAAAAA00001464FFFF000093
:103F10000000000070A70A0000000001000000007F
:103F2000AAAAAAAA00000001FFFF000000000000EA
:103F3000000000000000000400000000AAAAAAAAD5
:103F400000000000FFDF0000000000000000000093
:103F50000000000000000000AAAAAAAA00000000B9
:103F6000FFFF000000000000000000000001000052
:103F700000000000AAAAAAAA00010000FFFF00009A
:103F80000000000000000000000000000000000031
:103F9000AAAAAAAA00000000FFFF0000000000007B
:103FA000000000000000000000000000AAAAAAAA69
:103FB00000000000FFFF0000000000000000000003
:103FC00000000000000000000A00000000000000E7
:103FD00003000000000000000000000000000000DE
:103FE00000000000000000000000000000000000D1
:103FF00000000000000000000000000000000000C1
:1040000000000000000000000000000000000000B0
:1040100000000000000000000000000000000000A0
:104020000000000000000000000000000000000090
:10403000880400000000000000800E000000000066
:10404000FF000000B8280120D82301200000000054
:10405000D83C000849040000E53C00085104000079
:10406000F33C0008009600000000080096000000E5
:104070000008000004000000703E0008000000007E
:104080000000000000000000000000000000000030
:04409000000000002C
:00000001FF
